{
  "abi": [
    {
      "anonymous": false,
      "inputs": [
        {
          "indexed": false,
          "internalType": "uint256",
          "name": "harvestRunId",
          "type": "uint256"
        },
        {
          "indexed": false,
          "internalType": "uint256",
          "name": "numVaultsHarvested",
          "type": "uint256"
        },
        {
          "indexed": false,
          "internalType": "address[]",
          "name": "retVaults",
          "type": "address[]"
        }
      ],
      "name": "HarvestRun",
      "type": "event"
    },
    {
      "anonymous": false,
      "inputs": [
        {
          "indexed": true,
          "internalType": "address",
          "name": "user",
          "type": "address"
        },
        {
          "indexed": true,
          "internalType": "address",
          "name": "owner",
          "type": "address"
        }
      ],
      "name": "NewWhitelist",
      "type": "event"
    },
    {
      "anonymous": false,
      "inputs": [
        {
          "indexed": true,
          "internalType": "address",
          "name": "previousOwner",
          "type": "address"
        },
        {
          "indexed": true,
          "internalType": "address",
          "name": "newOwner",
          "type": "address"
        }
      ],
      "name": "OwnershipTransferred",
      "type": "event"
    },
    {
      "anonymous": false,
      "inputs": [
        {
          "indexed": true,
          "internalType": "address",
          "name": "user",
          "type": "address"
        },
        {
          "indexed": true,
          "internalType": "address",
          "name": "owner",
          "type": "address"
        }
      ],
      "name": "RemoveWhitelist",
      "type": "event"
    },
    {
      "inputs": [
        {
          "internalType": "address[]",
          "name": "retVaults",
          "type": "address[]"
        }
      ],
      "name": "harvestVault",
      "outputs": [],
      "stateMutability": "nonpayable",
      "type": "function"
    },
    {
      "inputs": [
        {
          "internalType": "address",
          "name": "user",
          "type": "address"
        }
      ],
      "name": "newWhitelist",
      "outputs": [],
      "stateMutability": "nonpayable",
      "type": "function"
    },
    {
      "inputs": [],
      "name": "owner",
      "outputs": [
        {
          "internalType": "address",
          "name": "",
          "type": "address"
        }
      ],
      "stateMutability": "view",
      "type": "function"
    },
    {
      "inputs": [
        {
          "internalType": "address",
          "name": "user",
          "type": "address"
        }
      ],
      "name": "removeWhitelist",
      "outputs": [],
      "stateMutability": "nonpayable",
      "type": "function"
    },
    {
      "inputs": [],
      "name": "renounceOwnership",
      "outputs": [],
      "stateMutability": "nonpayable",
      "type": "function"
    },
    {
      "inputs": [
        {
          "internalType": "address",
          "name": "newOwner",
          "type": "address"
        }
      ],
      "name": "transferOwnership",
      "outputs": [],
      "stateMutability": "nonpayable",
      "type": "function"
    },
    {
      "inputs": [
        {
          "internalType": "address",
          "name": "",
          "type": "address"
        }
      ],
      "name": "whitelist",
      "outputs": [
        {
          "internalType": "bool",
          "name": "",
          "type": "bool"
        }
      ],
      "stateMutability": "view",
      "type": "function"
    }
  ],
  "bytecode": {
    "object": "0x6080604052600160025534801561001557600080fd5b5061001f33610024565b610074565b600080546001600160a01b038381166001600160a01b0319831681178455604051919092169283917f8be0079c531659141344cd1fd0a4f28419497f9722a3daafe3b4186f6b6457e09190a35050565b6107fd806100836000396000f3fe608060405234801561001057600080fd5b506004361061007d5760003560e01c80639674ca6e1161005b5780639674ca6e146100bf5780639b19251a146100d2578063f2fde38b14610105578063ff3407cf1461011857600080fd5b8063715018a61461008257806378c8cda71461008c5780638da5cb5b1461009f575b600080fd5b61008a61012b565b005b61008a61009a366004610610565b61013f565b6000546040516001600160a01b0390911681526020015b60405180910390f35b61008a6100cd366004610610565b610216565b6100f56100e0366004610610565b60016020526000908152604090205460ff1681565b60405190151581526020016100b6565b61008a610113366004610610565b6102e9565b61008a61012636600461064a565b610362565b6101336104e2565b61013d600061053c565b565b6101476104e2565b6001600160a01b03811660009081526001602052604090205460ff166101c65760405162461bcd60e51b815260206004820152602960248201527f57686974656c69737446696c7465723a2052656d6f76696e67204e6f6e2057686044820152681a5d195b1a5cdd195960ba1b60648201526084015b60405180910390fd5b6001600160a01b03818116600081815260016020526040808220805460ff19169055815490519316927f403c5e5cf4d35483fc4491cc180e7c00fd44449e95dc52cf2f470d8c02699f659190a350565b61021e6104e2565b6001600160a01b03811660009081526001602052604090205460ff16156102935760405162461bcd60e51b8152602060048201526024808201527f57686974656c69737446696c7465723a20416c72656164792057686974656c696044820152631cdd195960e21b60648201526084016101bd565b6001600160a01b038181166000818152600160208190526040808320805460ff1916909217909155815490519316927f74dd9d466f35e6d6ff9fa8b6ba203f926982ab037ba5d8e8457a0a9516e27e149190a350565b6102f16104e2565b6001600160a01b0381166103565760405162461bcd60e51b815260206004820152602660248201527f4f776e61626c653a206e6577206f776e657220697320746865207a65726f206160448201526564647265737360d01b60648201526084016101bd565b61035f8161053c565b50565b61036a61058c565b60005b815181101561048f5760006001600160a01b03168282815181106103935761039361070f565b60200260200101516001600160a01b0316031561048f5760008282815181106103be576103be61070f565b60200260200101516001600160a01b031663a8c62e766040518163ffffffff1660e01b8152600401602060405180830381865afa158015610403573d6000803e3d6000fd5b505050506040513d601f19601f820116820180604052508101906104279190610725565b9050806001600160a01b0316634641257d6040518163ffffffff1660e01b8152600401600060405180830381600087803b15801561046457600080fd5b505af1158015610478573d6000803e3d6000fd5b50505050508061048781610742565b91505061036d565b50600280547f11a51afe105110c7ce3768d36a5a4a73df4c20fa73a8f1471ab6e024765055fc9160006104c183610742565b919050558251836040516104d793929190610769565b60405180910390a150565b6000546001600160a01b0316331461013d5760405162461bcd60e51b815260206004820181905260248201527f4f776e61626c653a2063616c6c6572206973206e6f7420746865206f776e657260448201526064016101bd565b600080546001600160a01b038381166001600160a01b0319831681178455604051919092169283917f8be0079c531659141344cd1fd0a4f28419497f9722a3daafe3b4186f6b6457e09190a35050565b3360009081526001602052604090205460ff1661013d5760405162461bcd60e51b815260206004820152601d60248201527f57686974656c69737446696c7465723a202177686974656c697374656400000060448201526064016101bd565b6001600160a01b038116811461035f57600080fd5b803561060b816105eb565b919050565b60006020828403121561062257600080fd5b813561062d816105eb565b9392505050565b634e487b7160e01b600052604160045260246000fd5b6000602080838503121561065d57600080fd5b823567ffffffffffffffff8082111561067557600080fd5b818501915085601f83011261068957600080fd5b81358181111561069b5761069b610634565b8060051b604051601f19603f830116810181811085821117156106c0576106c0610634565b6040529182528482019250838101850191888311156106de57600080fd5b938501935b82851015610703576106f485610600565b845293850193928501926106e3565b98975050505050505050565b634e487b7160e01b600052603260045260246000fd5b60006020828403121561073757600080fd5b815161062d816105eb565b60006001820161076257634e487b7160e01b600052601160045260246000fd5b5060010190565b6000606082018583526020858185015260606040850152818551808452608086019150828701935060005b818110156107b95784516001600160a01b031683529383019391830191600101610794565b50909897505050505050505056fea2646970667358221220599933224be93902d61dc54d09e9c61d1df915333b7ae387414641d1d36962dd64736f6c63430008130033",
    "linkReferences": {}
  },
  "methodIdentifiers": {
    "harvestVault(address[])": "ff3407cf",
    "newWhitelist(address)": "9674ca6e",
    "owner()": "8da5cb5b",
    "removeWhitelist(address)": "78c8cda7",
    "renounceOwnership()": "715018a6",
    "transferOwnership(address)": "f2fde38b",
    "whitelist(address)": "9b19251a"
  },
  "id": 1
}