{
    "contractName": "Resolver",
    "abi": [
        {
            "inputs": [
                {
                    "internalType": "address",
                    "name": "_riveraFactory",
                    "type": "address"
                },
                {
                    "internalType": "address",
                    "name": "_PANCAKE_FACTORY",
                    "type": "address"
                },
                {
                    "internalType": "address",
                    "name": "_REWARD",
                    "type": "address"
                },
                {
                    "internalType": "address",
                    "name": "_NATIVE_GAS",
                    "type": "address"
                },
                {
                    "internalType": "address",
                    "name": "_BASE_CURRENCY",
                    "type": "address"
                }
            ],
            "stateMutability": "nonpayable",
            "type": "constructor"
        },
        {
            "inputs": [],
            "name": "BASE_CURRENCY",
            "outputs": [
                {
                    "internalType": "address",
                    "name": "",
                    "type": "address"
                }
            ],
            "stateMutability": "view",
            "type": "function"
        },
        {
            "inputs": [],
            "name": "NATIVE_GAS",
            "outputs": [
                {
                    "internalType": "address",
                    "name": "",
                    "type": "address"
                }
            ],
            "stateMutability": "view",
            "type": "function"
        },
        {
            "inputs": [],
            "name": "PANCAKE_FACTORY",
            "outputs": [
                {
                    "internalType": "address",
                    "name": "",
                    "type": "address"
                }
            ],
            "stateMutability": "view",
            "type": "function"
        },
        {
            "inputs": [],
            "name": "REWARD",
            "outputs": [
                {
                    "internalType": "address",
                    "name": "",
                    "type": "address"
                }
            ],
            "stateMutability": "view",
            "type": "function"
        },
        {
            "inputs": [
                {
                    "internalType": "address",
                    "name": "tokenA",
                    "type": "address"
                },
                {
                    "internalType": "address",
                    "name": "tokenB",
                    "type": "address"
                }
            ],
            "name": "arrangeTokens",
            "outputs": [
                {
                    "internalType": "address",
                    "name": "",
                    "type": "address"
                },
                {
                    "internalType": "address",
                    "name": "",
                    "type": "address"
                }
            ],
            "stateMutability": "pure",
            "type": "function"
        },
        {
            "inputs": [],
            "name": "checker",
            "outputs": [
                {
                    "internalType": "bool",
                    "name": "canExec",
                    "type": "bool"
                },
                {
                    "internalType": "bytes",
                    "name": "execPayload",
                    "type": "bytes"
                }
            ],
            "stateMutability": "view",
            "type": "function"
        },
        {
            "inputs": [],
            "name": "costOfHarvest",
            "outputs": [
                {
                    "internalType": "uint256",
                    "name": "_amount",
                    "type": "uint256"
                }
            ],
            "stateMutability": "view",
            "type": "function"
        },
        {
            "inputs": [],
            "name": "getAllVaults",
            "outputs": [
                {
                    "internalType": "address[]",
                    "name": "",
                    "type": "address[]"
                }
            ],
            "stateMutability": "view",
            "type": "function"
        },
        {
            "inputs": [
                {
                    "internalType": "address",
                    "name": "_vault",
                    "type": "address"
                }
            ],
            "name": "getHarvestAmount",
            "outputs": [
                {
                    "internalType": "uint256",
                    "name": "",
                    "type": "uint256"
                }
            ],
            "stateMutability": "view",
            "type": "function"
        },
        {
            "inputs": [
                {
                    "internalType": "address",
                    "name": "lpToken",
                    "type": "address"
                }
            ],
            "name": "lpTokenToBaseTokenConversionRate",
            "outputs": [
                {
                    "internalType": "uint256",
                    "name": "",
                    "type": "uint256"
                }
            ],
            "stateMutability": "view",
            "type": "function"
        },
        {
            "inputs": [
                {
                    "internalType": "address",
                    "name": "_vault",
                    "type": "address"
                }
            ],
            "name": "netCapitalDeposited",
            "outputs": [
                {
                    "internalType": "uint256",
                    "name": "_amount",
                    "type": "uint256"
                }
            ],
            "stateMutability": "view",
            "type": "function"
        },
        {
            "inputs": [],
            "name": "riveraFactory",
            "outputs": [
                {
                    "internalType": "address",
                    "name": "",
                    "type": "address"
                }
            ],
            "stateMutability": "view",
            "type": "function"
        },
        {
            "inputs": [
                {
                    "internalType": "address",
                    "name": "token",
                    "type": "address"
                }
            ],
            "name": "tokenToBaseTokenConversionRate",
            "outputs": [
                {
                    "internalType": "uint256",
                    "name": "",
                    "type": "uint256"
                }
            ],
            "stateMutability": "view",
            "type": "function"
        }
    ],
    "bytecode": "60806040523480156200001157600080fd5b506040516200118d3803806200118d8339810160408190526200003491620000b4565b600080546001600160a01b03199081166001600160a01b0397881617909155600180548216958716959095179094556002805485169386169390931790925560038054841691851691909117905560048054909216921691909117905562000124565b80516001600160a01b0381168114620000af57600080fd5b919050565b600080600080600060a08688031215620000cd57600080fd5b620000d88662000097565b9450620000e86020870162000097565b9350620000f86040870162000097565b9250620001086060870162000097565b9150620001186080870162000097565b90509295509295909350565b61105980620001346000396000f3fe608060405234801561001057600080fd5b50600436106100cf5760003560e01c80639c07156f1161008c578063cab34c0811610066578063cab34c08146101c1578063cf5303cf146101d4578063e19f4700146101ea578063e39f1d0b146101fd57600080fd5b80639c07156f14610188578063a54316c61461019b578063c78a065f146101ae57600080fd5b80632152abaf146100d45780632b09663f146100fa5780633032db291461010257806383e015f71461012d5780638b9857951461016057806397331bf914610173575b600080fd5b6100e76100e2366004610c82565b610210565b6040519081526020015b60405180910390f35b6100e7610384565b600054610115906001600160a01b031681565b6040516001600160a01b0390911681526020016100f1565b61014061013b366004610ca6565b6103ca565b604080516001600160a01b039384168152929091166020830152016100f1565b600154610115906001600160a01b031681565b61017b6103fb565b6040516100f19190610cdf565b6100e7610196366004610c82565b610474565b600354610115906001600160a01b031681565b6100e76101bc366004610c82565b61077c565b600254610115906001600160a01b031681565b6101dc6108d3565b6040516100f1929190610d72565b600454610115906001600160a01b031681565b6100e761020b366004610c82565b610a57565b6004546000906001600160a01b039081169083160361023157506001919050565b6001546004805460405163e6a4390560e01b81526001600160a01b03868116938201939093529082166024820152600092919091169063e6a4390590604401602060405180830381865afa15801561028d573d6000803e3d6000fd5b505050506040513d601f19601f820116820180604052508101906102b19190610da0565b9050600080826001600160a01b0316630902f1ac6040518163ffffffff1660e01b8152600401606060405180830381865afa1580156102f4573d6000803e3d6000fd5b505050506040513d601f19601f820116820180604052508101906103189190610dd4565b506004549193509150600090819061033a9088906001600160a01b03166103ca565b91509150866001600160a01b0316826001600160a01b031614610366576103618385610e50565b610370565b6103708484610e50565b6001600160701b0316979650505050505050565b6000620665ee6006826103978284610e76565b6003549091506000906103b2906001600160a01b0316610210565b905060006103c08383610e76565b9695505050505050565b600080826001600160a01b0316846001600160a01b0316106103ed5782846103f0565b83835b915091509250929050565b60008054604080516366a9a1bb60e01b81529051606093926001600160a01b0316916366a9a1bb91600480830192869291908290030181865afa158015610446573d6000803e3d6000fd5b505050506040513d6000823e601f3d908101601f1916820160405261046e9190810190610ea3565b92915050565b6000806000836001600160a01b0316630902f1ac6040518163ffffffff1660e01b8152600401606060405180830381865afa1580156104b7573d6000803e3d6000fd5b505050506040513d601f19601f820116820180604052508101906104db9190610dd4565b50915091506000846001600160a01b0316630dfe16816040518163ffffffff1660e01b8152600401602060405180830381865afa158015610520573d6000803e3d6000fd5b505050506040513d601f19601f820116820180604052508101906105449190610da0565b90506000856001600160a01b031663d21220a76040518163ffffffff1660e01b8152600401602060405180830381865afa158015610586573d6000803e3d6000fd5b505050506040513d601f19601f820116820180604052508101906105aa9190610da0565b90506105d760405180604001604052806009815260200168746f6b656e3020257360b81b81525083610b4b565b61060260405180604001604052806009815260200168746f6b656e3120257360b81b81525082610b4b565b6000846001600160701b031661061784610210565b6106219190610e76565b905061065b604051806040016040528060168152602001757265736572766530496e42617365546f6b656e20257360501b81525082610b94565b6000846001600160701b031661067084610210565b61067a9190610e76565b90506106b4604051806040016040528060168152602001757265736572766531496e42617365546f6b656e20257360501b81525082610b94565b6000886001600160a01b03166318160ddd6040518163ffffffff1660e01b8152600401602060405180830381865afa1580156106f4573d6000803e3d6000fd5b505050506040513d601f19601f820116820180604052508101906107189190610f68565b905061075a6040518060400160405280600881526020016703930ba329012b9960c51b81525082848661074b9190610f81565b6107559190610f94565b610b94565b806107658385610f81565b61076f9190610f94565b9998505050505050505050565b600080826001600160a01b031663b69ef8a86040518163ffffffff1660e01b8152600401602060405180830381865afa1580156107bd573d6000803e3d6000fd5b505050506040513d601f19601f820116820180604052508101906107e19190610f68565b90506000836001600160a01b031663a8c62e766040518163ffffffff1660e01b8152600401602060405180830381865afa158015610823573d6000803e3d6000fd5b505050506040513d601f19601f820116820180604052508101906108479190610da0565b90506000816001600160a01b0316633a4b66f16040518163ffffffff1660e01b8152600401602060405180830381865afa158015610889573d6000803e3d6000fd5b505050506040513d601f19601f820116820180604052508101906108ad9190610da0565b905060006108ba82610474565b905060006108c88583610e76565b979650505050505050565b60006060806000806108e36103fb565b905060005b81518110156109fa57600082828151811061090557610905610fa8565b60200260200101519050600061091a8261077c565b90506000610926610384565b9050600061093384610a57565b9050600082610943856002610e76565b61094d9190610f94565b6109768461095c876008610e76565b6109669190610f94565b610971906001610f81565b610bd9565b610981906001610f81565b61098b9190610f94565b905060006109998583610e76565b90508281106109e157858a8a6109ae81610fbe565b9b50815181106109c0576109c0610fa8565b60200260200101906001600160a01b031690816001600160a01b0316815250505b50505050505080806109f290610fbe565b9150506108e8565b50600183511015945063ff3407cf60e01b83604051602401610a1c9190610cdf565b60408051601f198184030181529190526020810180516001600160e01b03166001600160e01b03199093169290921790915294959350505050565b600080826001600160a01b031663a8c62e766040518163ffffffff1660e01b8152600401602060405180830381865afa158015610a98573d6000803e3d6000fd5b505050506040513d601f19601f82011682018060405250810190610abc9190610da0565b90506000816001600160a01b031663e7a7250a6040518163ffffffff1660e01b8152600401602060405180830381865afa158015610afe573d6000803e3d6000fd5b505050506040513d601f19601f82011682018060405250810190610b229190610f68565b600254909150600090610b3d906001600160a01b0316610210565b905060006103c08284610e76565b610b908282604051602401610b61929190610fd7565b60408051601f198184030181529190526020810180516001600160e01b031663319af33360e01b179052610c49565b5050565b610b908282604051602401610baa929190611001565b60408051601f198184030181529190526020810180516001600160e01b03166309710a9d60e41b179052610c49565b60006003821115610c3a5750806000610bf3600283610f94565b610bfe906001610f81565b90505b81811015610c3457905080600281610c198186610f94565b610c239190610f81565b610c2d9190610f94565b9050610c01565b50919050565b8115610c44575060015b919050565b80516a636f6e736f6c652e6c6f67602083016000808483855afa5050505050565b6001600160a01b0381168114610c7f57600080fd5b50565b600060208284031215610c9457600080fd5b8135610c9f81610c6a565b9392505050565b60008060408385031215610cb957600080fd5b8235610cc481610c6a565b91506020830135610cd481610c6a565b809150509250929050565b6020808252825182820181905260009190848201906040850190845b81811015610d205783516001600160a01b031683529284019291840191600101610cfb565b50909695505050505050565b6000815180845260005b81811015610d5257602081850181015186830182015201610d36565b506000602082860101526020601f19601f83011685010191505092915050565b8215158152604060208201526000610d8d6040830184610d2c565b949350505050565b8051610c4481610c6a565b600060208284031215610db257600080fd5b8151610c9f81610c6a565b80516001600160701b0381168114610c4457600080fd5b600080600060608486031215610de957600080fd5b610df284610dbd565b9250610e0060208501610dbd565b9150604084015163ffffffff81168114610e1957600080fd5b809150509250925092565b634e487b7160e01b600052601260045260246000fd5b634e487b7160e01b600052601160045260246000fd5b60006001600160701b0380841680610e6a57610e6a610e24565b92169190910492915050565b808202811582820484141761046e5761046e610e3a565b634e487b7160e01b600052604160045260246000fd5b60006020808385031215610eb657600080fd5b825167ffffffffffffffff80821115610ece57600080fd5b818501915085601f830112610ee257600080fd5b815181811115610ef457610ef4610e8d565b8060051b604051601f19603f83011681018181108582111715610f1957610f19610e8d565b604052918252848201925083810185019188831115610f3757600080fd5b938501935b82851015610f5c57610f4d85610d95565b84529385019392850192610f3c565b98975050505050505050565b600060208284031215610f7a57600080fd5b5051919050565b8082018082111561046e5761046e610e3a565b600082610fa357610fa3610e24565b500490565b634e487b7160e01b600052603260045260246000fd5b600060018201610fd057610fd0610e3a565b5060010190565b604081526000610fea6040830185610d2c565b905060018060a01b03831660208301529392505050565b6040815260006110146040830185610d2c565b9050826020830152939250505056fea26469706673582212209cee217da5d8a54729c059ea7bd919263e4e2e0439e5f15838026dde78c2f6e764736f6c63430008110033",
    "sourcePath": "c:/apps/AuthLink/Private/Gelato/contracts/Resolver.sol",
    "compiler": {
        "name": "solc",
        "version": "0.8.17+commit.8df45f5f"
    },
    "functionHashes": {
        "BASE_CURRENCY()": "e19f4700",
        "NATIVE_GAS()": "a54316c6",
        "PANCAKE_FACTORY()": "8b985795",
        "REWARD()": "cab34c08",
        "arrangeTokens(address,address)": "83e015f7",
        "checker()": "cf5303cf",
        "costOfHarvest()": "2b09663f",
        "getAllVaults()": "97331bf9",
        "getHarvestAmount(address)": "e39f1d0b",
        "lpTokenToBaseTokenConversionRate(address)": "9c07156f",
        "netCapitalDeposited(address)": "c78a065f",
        "riveraFactory()": "3032db29",
        "tokenToBaseTokenConversionRate(address)": "2152abaf"
    },
    "gasEstimates": {
        "creation": {
            "codeDepositCost": "837000",
            "executionCost": "infinite",
            "totalCost": "infinite"
        },
        "external": {
            "BASE_CURRENCY()": "2403",
            "NATIVE_GAS()": "2382",
            "PANCAKE_FACTORY()": "2426",
            "REWARD()": "2359",
            "arrangeTokens(address,address)": "infinite",
            "checker()": "infinite",
            "costOfHarvest()": "infinite",
            "getAllVaults()": "infinite",
            "getHarvestAmount(address)": "infinite",
            "lpTokenToBaseTokenConversionRate(address)": "infinite",
            "netCapitalDeposited(address)": "infinite",
            "riveraFactory()": "2382",
            "tokenToBaseTokenConversionRate(address)": "infinite"
        },
        "internal": {
            "sqrt(uint256)": "infinite"
        }
    }
}