{
  "abi": [
    {
      "inputs": [
        {
          "internalType": "address",
          "name": "_riveraFactory",
          "type": "address"
        },
        {
          "internalType": "address",
          "name": "_PANCAKE_FACTORY",
          "type": "address"
        },
        {
          "internalType": "address",
          "name": "_REWARD",
          "type": "address"
        },
        {
          "internalType": "address",
          "name": "_NATIVE_GAS",
          "type": "address"
        },
        {
          "internalType": "uint32",
          "name": "_averageGasOfHarvestingSingleVault",
          "type": "uint32"
        }
      ],
      "stateMutability": "nonpayable",
      "type": "constructor"
    },
    {
      "anonymous": false,
      "inputs": [
        {
          "indexed": true,
          "internalType": "address",
          "name": "previousOwner",
          "type": "address"
        },
        {
          "indexed": true,
          "internalType": "address",
          "name": "newOwner",
          "type": "address"
        }
      ],
      "name": "OwnershipTransferred",
      "type": "event"
    },
    {
      "anonymous": false,
      "inputs": [
        {
          "indexed": false,
          "internalType": "uint32",
          "name": "averageGasOfHarvestingSingleVaultOld",
          "type": "uint32"
        },
        {
          "indexed": false,
          "internalType": "uint32",
          "name": "averageGasOfHarvestingSingleVaultNew",
          "type": "uint32"
        }
      ],
      "name": "VaultHarvestGasChange",
      "type": "event"
    },
    {
      "inputs": [],
      "name": "NATIVE_GAS",
      "outputs": [
        {
          "internalType": "address",
          "name": "",
          "type": "address"
        }
      ],
      "stateMutability": "view",
      "type": "function"
    },
    {
      "inputs": [],
      "name": "PANCAKE_FACTORY",
      "outputs": [
        {
          "internalType": "address",
          "name": "",
          "type": "address"
        }
      ],
      "stateMutability": "view",
      "type": "function"
    },
    {
      "inputs": [],
      "name": "REWARD",
      "outputs": [
        {
          "internalType": "address",
          "name": "",
          "type": "address"
        }
      ],
      "stateMutability": "view",
      "type": "function"
    },
    {
      "inputs": [
        {
          "internalType": "address",
          "name": "feed",
          "type": "address"
        }
      ],
      "name": "_getFeedDecimals",
      "outputs": [
        {
          "internalType": "uint8",
          "name": "",
          "type": "uint8"
        }
      ],
      "stateMutability": "view",
      "type": "function"
    },
    {
      "inputs": [],
      "name": "averageGasOfHarvestingSingleVault",
      "outputs": [
        {
          "internalType": "uint32",
          "name": "",
          "type": "uint32"
        }
      ],
      "stateMutability": "view",
      "type": "function"
    },
    {
      "inputs": [],
      "name": "checker",
      "outputs": [
        {
          "internalType": "bool",
          "name": "canExec",
          "type": "bool"
        },
        {
          "internalType": "bytes",
          "name": "execPayload",
          "type": "bytes"
        }
      ],
      "stateMutability": "view",
      "type": "function"
    },
    {
      "inputs": [],
      "name": "costOfHarvest",
      "outputs": [
        {
          "internalType": "uint256",
          "name": "_amount",
          "type": "uint256"
        }
      ],
      "stateMutability": "view",
      "type": "function"
    },
    {
      "inputs": [
        {
          "internalType": "address",
          "name": "_vault",
          "type": "address"
        }
      ],
      "name": "getHarvestAmount",
      "outputs": [
        {
          "internalType": "uint256",
          "name": "",
          "type": "uint256"
        }
      ],
      "stateMutability": "view",
      "type": "function"
    },
    {
      "inputs": [
        {
          "internalType": "uint256",
          "name": "cost",
          "type": "uint256"
        },
        {
          "internalType": "uint256",
          "name": "vaultAmount",
          "type": "uint256"
        }
      ],
      "name": "getStepwiseH",
      "outputs": [
        {
          "internalType": "uint256",
          "name": "H",
          "type": "uint256"
        }
      ],
      "stateMutability": "pure",
      "type": "function"
    },
    {
      "inputs": [
        {
          "internalType": "address",
          "name": "_vault",
          "type": "address"
        }
      ],
      "name": "netCapitalDeposited",
      "outputs": [
        {
          "internalType": "uint256",
          "name": "_amount",
          "type": "uint256"
        }
      ],
      "stateMutability": "view",
      "type": "function"
    },
    {
      "inputs": [],
      "name": "owner",
      "outputs": [
        {
          "internalType": "address",
          "name": "",
          "type": "address"
        }
      ],
      "stateMutability": "view",
      "type": "function"
    },
    {
      "inputs": [],
      "name": "renounceOwnership",
      "outputs": [],
      "stateMutability": "nonpayable",
      "type": "function"
    },
    {
      "inputs": [],
      "name": "riveraFactory",
      "outputs": [
        {
          "internalType": "address",
          "name": "",
          "type": "address"
        }
      ],
      "stateMutability": "view",
      "type": "function"
    },
    {
      "inputs": [
        {
          "internalType": "uint32",
          "name": "averageGasOfHarvestingSingleVault_",
          "type": "uint32"
        }
      ],
      "name": "setAverageGasOfHarvestingSingleVault",
      "outputs": [],
      "stateMutability": "nonpayable",
      "type": "function"
    },
    {
      "inputs": [
        {
          "internalType": "address",
          "name": "feed",
          "type": "address"
        }
      ],
      "name": "tokenToNativeTokenConversionRate",
      "outputs": [
        {
          "internalType": "uint256",
          "name": "",
          "type": "uint256"
        }
      ],
      "stateMutability": "view",
      "type": "function"
    },
    {
      "inputs": [
        {
          "internalType": "address",
          "name": "newOwner",
          "type": "address"
        }
      ],
      "name": "transferOwnership",
      "outputs": [],
      "stateMutability": "nonpayable",
      "type": "function"
    }
  ],
  "bytecode": {
    "object": "0x60806040523480156200001157600080fd5b50604051620014d8380380620014d8833981016040819052620000349162000125565b6200003f33620000b8565b600180546001600160a01b03199081166001600160a01b039788161790915560028054821695871695909517909455600380548516938616939093179092556004805490931693169290921790556000805463ffffffff60a01b1916600160a01b63ffffffff90931692909202919091179055620001a1565b600080546001600160a01b038381166001600160a01b0319831681178455604051919092169283917f8be0079c531659141344cd1fd0a4f28419497f9722a3daafe3b4186f6b6457e09190a35050565b80516001600160a01b03811681146200012057600080fd5b919050565b600080600080600060a086880312156200013e57600080fd5b620001498662000108565b9450620001596020870162000108565b9350620001696040870162000108565b9250620001796060870162000108565b9150608086015163ffffffff811681146200019357600080fd5b809150509295509295909350565b61132780620001b16000396000f3fe608060405234801561001057600080fd5b50600436106101005760003560e01c8063a54316c611610097578063d22b95f111610066578063d22b95f11461021a578063d7be037d1461022d578063e39f1d0b14610252578063f2fde38b1461026557600080fd5b8063a54316c6146101cb578063c78a065f146101de578063cab34c08146101f1578063cf5303cf1461020457600080fd5b80638831df46116100d35780638831df46146101685780638b985795146101945780638ba0c043146101a75780638da5cb5b146101ba57600080fd5b80631c4f06d2146101055780632b09663f1461012b5780633032db2914610133578063715018a61461015e575b600080fd5b610118610113366004610e7e565b610278565b6040519081526020015b60405180910390f35b6101186102ca565b600154610146906001600160a01b031681565b6040516001600160a01b039091168152602001610122565b6101666102ee565b005b60005461017f90600160a01b900463ffffffff1681565b60405163ffffffff9091168152602001610122565b600254610146906001600160a01b031681565b6101186101b5366004610eb5565b610302565b6000546001600160a01b0316610146565b600454610146906001600160a01b031681565b6101186101ec366004610eb5565b610379565b600354610146906001600160a01b031681565b61020c61057b565b604051610122929190610ed2565b610166610228366004610f2a565b610758565b61024061023b366004610eb5565b6107d1565b60405160ff9091168152602001610122565b610118610260366004610eb5565b610839565b610166610273366004610eb5565b610b4a565b6000610285600284610f7c565b6102ae84610294856008610f9e565b61029e9190610f7c565b6102a9906001610fb5565b610bc3565b6102b9906001610fb5565b6102c39190610f9e565b9392505050565b6000805481906102e8903a90600160a01b900463ffffffff16610f9e565b92915050565b6102f6610cab565b6103006000610d05565b565b6000808290506000816001600160a01b031663feaf968c6040518163ffffffff1660e01b815260040160a060405180830381865afa158015610348573d6000803e3d6000fd5b505050506040513d601f19601f8201168201806040525081019061036c9190610fe7565b5091979650505050505050565b600080826001600160a01b03166301e1d1146040518163ffffffff1660e01b8152600401602060405180830381865afa1580156103ba573d6000803e3d6000fd5b505050506040513d601f19601f820116820180604052508101906103de9190611037565b90506000836001600160a01b03166338d52e0f6040518163ffffffff1660e01b8152600401602060405180830381865afa158015610420573d6000803e3d6000fd5b505050506040513d601f19601f82011682018060405250810190610444919061105b565b6004549091506001600160a01b0390811690821603610464575092915050565b6000846001600160a01b031663a8c62e766040518163ffffffff1660e01b8152600401602060405180830381865afa1580156104a4573d6000803e3d6000fd5b505050506040513d601f19601f820116820180604052508101906104c8919061105b565b90506000816001600160a01b031663ebf678f06040518163ffffffff1660e01b8152600401602060405180830381865afa15801561050a573d6000803e3d6000fd5b505050506040513d601f19601f8201168201806040525081019061052e919061105b565b9050600061053b82610302565b90506000610548836107d1565b60ff169050600061055a82600a61115c565b6105648885610f9e565b61056e9190610f7c565b9998505050505050505050565b6000606060008061058a610d55565b905060008151116105e25760405162461bcd60e51b815260206004820152601c60248201527f5265736f6c7665723a204e6f207661756c7473206465706c6f7965640000000060448201526064015b60405180910390fd5b6000815167ffffffffffffffff8111156105fe576105fe611168565b604051908082528060200260200182016040528015610627578160200160208202803683370190505b5090506000945060005b82518110156106ff57600083828151811061064e5761064e61117e565b60200260200101519050600061066382610839565b9050600061066f6102ca565b9050600061067c84610379565b90508082111561068f57505050506106ed565b600061069b8383610278565b90508084106106e75760019a5084878a6106b481611194565b9b50815181106106c6576106c661117e565b60200260200101906001600160a01b031690816001600160a01b0316815250505b50505050505b806106f781611194565b915050610631565b50604051600162cbf83160e01b03199061071d9083906024016111ad565b60408051601f198184030181529190526020810180516001600160e01b03166001600160e01b03199093169290921790915294959350505050565b610760610cab565b6000546040805163ffffffff600160a01b9093048316815291831660208301527f3c16cdb38efe221070ab18cb329d4af5b722eddb38b0cb5a464b357539bd844b910160405180910390a16000805463ffffffff909216600160a01b0263ffffffff60a01b19909216919091179055565b600080829050806001600160a01b031663313ce5676040518163ffffffff1660e01b8152600401602060405180830381865afa158015610815573d6000803e3d6000fd5b505050506040513d601f19601f820116820180604052508101906102c391906111fa565b6000806000836001600160a01b031663a8c62e766040518163ffffffff1660e01b8152600401602060405180830381865afa15801561087c573d6000803e3d6000fd5b505050506040513d601f19601f820116820180604052508101906108a0919061105b565b90506000816001600160a01b031663aac41ef96040518163ffffffff1660e01b8152600401602060405180830381865afa1580156108e2573d6000803e3d6000fd5b505050506040513d601f19601f820116820180604052508101906109069190611037565b90506000856001600160a01b03166338d52e0f6040518163ffffffff1660e01b8152600401602060405180830381865afa158015610948573d6000803e3d6000fd5b505050506040513d601f19601f8201168201806040525081019061096c919061105b565b6004549091506001600160a01b039081169082160361098d57819350610a2d565b6000836001600160a01b031663ebf678f06040518163ffffffff1660e01b8152600401602060405180830381865afa1580156109cd573d6000803e3d6000fd5b505050506040513d601f19601f820116820180604052508101906109f1919061105b565b905060006109fe82610302565b9050610a09826107d1565b610a1490600a61121d565b610a1e8583610f9e565b610a289190610f7c565b955050505b6000836001600160a01b031663e7a7250a6040518163ffffffff1660e01b8152600401602060405180830381865afa158015610a6d573d6000803e3d6000fd5b505050506040513d601f19601f82011682018060405250810190610a919190611037565b90506000846001600160a01b031663b5164afd6040518163ffffffff1660e01b8152600401602060405180830381865afa158015610ad3573d6000803e3d6000fd5b505050506040513d601f19601f82011682018060405250810190610af7919061105b565b90506000610b0482610302565b90506000610b11836107d1565b610b1c90600a61121d565b610b268386610f9e565b610b309190610f7c565b9050610b3c8189610fb5565b9a9950505050505050505050565b610b52610cab565b6001600160a01b038116610bb75760405162461bcd60e51b815260206004820152602660248201527f4f776e61626c653a206e6577206f776e657220697320746865207a65726f206160448201526564647265737360d01b60648201526084016105d9565b610bc081610d05565b50565b600081600003610bd557506000919050565b60006001610be284610dd4565b901c6001901b90506001818481610bfb57610bfb610f50565b048201901c90506001818481610c1357610c13610f50565b048201901c90506001818481610c2b57610c2b610f50565b048201901c90506001818481610c4357610c43610f50565b048201901c90506001818481610c5b57610c5b610f50565b048201901c90506001818481610c7357610c73610f50565b048201901c90506001818481610c8b57610c8b610f50565b048201901c90506102c381828581610ca557610ca5610f50565b04610e68565b6000546001600160a01b031633146103005760405162461bcd60e51b815260206004820181905260248201527f4f776e61626c653a2063616c6c6572206973206e6f7420746865206f776e657260448201526064016105d9565b600080546001600160a01b038381166001600160a01b0319831681178455604051919092169283917f8be0079c531659141344cd1fd0a4f28419497f9722a3daafe3b4186f6b6457e09190a35050565b60606000600160009054906101000a90046001600160a01b03166001600160a01b03166366a9a1bb6040518163ffffffff1660e01b8152600401600060405180830381865afa158015610dac573d6000803e3d6000fd5b505050506040513d6000823e601f3d908101601f191682016040526102e8919081019061122c565b600080608083901c15610de957608092831c92015b604083901c15610dfb57604092831c92015b602083901c15610e0d57602092831c92015b601083901c15610e1f57601092831c92015b600883901c15610e3157600892831c92015b600483901c15610e4357600492831c92015b600283901c15610e5557600292831c92015b600183901c156102e85760010192915050565b6000818310610e7757816102c3565b5090919050565b60008060408385031215610e9157600080fd5b50508035926020909101359150565b6001600160a01b0381168114610bc057600080fd5b600060208284031215610ec757600080fd5b81356102c381610ea0565b821515815260006020604081840152835180604085015260005b81811015610f0857858101830151858201606001528201610eec565b506000606082860101526060601f19601f830116850101925050509392505050565b600060208284031215610f3c57600080fd5b813563ffffffff811681146102c357600080fd5b634e487b7160e01b600052601260045260246000fd5b634e487b7160e01b600052601160045260246000fd5b600082610f9957634e487b7160e01b600052601260045260246000fd5b500490565b80820281158282048414176102e8576102e8610f66565b808201808211156102e8576102e8610f66565b805169ffffffffffffffffffff81168114610fe257600080fd5b919050565b600080600080600060a08688031215610fff57600080fd5b61100886610fc8565b945060208601519350604086015192506060860151915061102b60808701610fc8565b90509295509295909350565b60006020828403121561104957600080fd5b5051919050565b8051610fe281610ea0565b60006020828403121561106d57600080fd5b81516102c381610ea0565b600181815b808511156110b357816000190482111561109957611099610f66565b808516156110a657918102915b93841c939080029061107d565b509250929050565b6000826110ca575060016102e8565b816110d7575060006102e8565b81600181146110ed57600281146110f757611113565b60019150506102e8565b60ff84111561110857611108610f66565b50506001821b6102e8565b5060208310610133831016604e8410600b8410161715611136575081810a6102e8565b6111408383611078565b806000190482111561115457611154610f66565b029392505050565b60006102c383836110bb565b634e487b7160e01b600052604160045260246000fd5b634e487b7160e01b600052603260045260246000fd5b6000600182016111a6576111a6610f66565b5060010190565b6020808252825182820181905260009190848201906040850190845b818110156111ee5783516001600160a01b0316835292840192918401916001016111c9565b50909695505050505050565b60006020828403121561120c57600080fd5b815160ff811681146102c357600080fd5b60006102c360ff8416836110bb565b6000602080838503121561123f57600080fd5b825167ffffffffffffffff8082111561125757600080fd5b818501915085601f83011261126b57600080fd5b81518181111561127d5761127d611168565b8060051b604051601f19603f830116810181811085821117156112a2576112a2611168565b6040529182528482019250838101850191888311156112c057600080fd5b938501935b828510156112e5576112d685611050565b845293850193928501926112c5565b9897505050505050505056fea26469706673582212207e927f0b38d8f86b0a4bad6792f8f91c50b3be6a2e1d8cfe74716f330f26780d64736f6c63430008130033",
    "linkReferences": {}
  },
  "methodIdentifiers": {
    "NATIVE_GAS()": "a54316c6",
    "PANCAKE_FACTORY()": "8b985795",
    "REWARD()": "cab34c08",
    "_getFeedDecimals(address)": "d7be037d",
    "averageGasOfHarvestingSingleVault()": "8831df46",
    "checker()": "cf5303cf",
    "costOfHarvest()": "2b09663f",
    "getHarvestAmount(address)": "e39f1d0b",
    "getStepwiseH(uint256,uint256)": "1c4f06d2",
    "netCapitalDeposited(address)": "c78a065f",
    "owner()": "8da5cb5b",
    "renounceOwnership()": "715018a6",
    "riveraFactory()": "3032db29",
    "setAverageGasOfHarvestingSingleVault(uint32)": "d22b95f1",
    "tokenToNativeTokenConversionRate(address)": "8ba0c043",
    "transferOwnership(address)": "f2fde38b"
  },
  "id": 3
}